:020000040000FA
:100000000C9462000C948A000C948A000C948A0070
:100010000C948A000C948A000C948A000C948A0038
:100020000C948A000C948A000C948A000C948A0028
:100030000C948A000C948A000C948A000C948A0018
:100040000C943D030C948A000C948A000C948A0052
:100050000C948A000C948A000C948A000C948A00F8
:100060000C948A000C948A000000000024002700F1
:100070002A0000000000250028002B0000000008D6
:10008000000201000003040700000000000000005F
:1000900000000000230026002900040404040404D6
:1000A0000404020202020202030303030303010227
:1000B00004081020408001020408102001020408F6
:1000C0001020F00511241FBECFEFD8E0DEBFCDBF5A
:1000D00011E0A0E0B1E0E8EEF0E102C005900D9281
:1000E000AC38B107D9F721E0ACE8B1E001C01D920E
:1000F000A33BB207E1F710E0C2E6D0E004C02197CD
:10010000FE010E946C08C136D107C9F70E94CC03DA
:100110000C9472080C940000AF92BF92CF92DF92C1
:10012000EF92FF920F931F93CF93DF936C017B01AC
:100130008B01040F151FEB015E01AE18BF08C0173D
:10014000D10759F06991D601ED91FC910190F081B0
:10015000E02DC6010995892B79F7C501DF91CF9173
:100160001F910F91FF90EF90DF90CF90BF90AF90D5
:10017000089590E0FC01E458FF4F2491FC01E25502
:10018000FF4F3491FC01E656FF4FE491EE23C9F096
:10019000222339F0233001F1A8F4213019F1223063
:1001A00029F1F0E0EE0FFF1FEE58FF4FA591B4913B
:1001B0008FB7F894EC91611126C030953E233C93A3
:1001C0008FBF08952730A9F02830C9F0243049F7AF
:1001D000809180008F7D03C0809180008F77809315
:1001E0008000DFCF84B58F7784BDDBCF84B58F7D72
:1001F000FBCF8091B0008F778093B000D2CF8091F9
:10020000B0008F7DF9CF3E2BDACFCF93DF9390E014
:10021000FC01E255FF4F249186569F4FFC018491CB
:100220008823D1F090E0880F991FFC01E859FF4F17
:10023000A591B491FC01EE58FF4FC591D491611185
:100240000EC09FB7F8948C91E22FE0958E238C938B
:100250002881E223E8839FBFDF91CF9108958FB774
:10026000F894EC91E22BEC938FBFF6CF3FB7F89464
:1002700080918D0190918E01A0918F01B09190019C
:1002800026B5A89B05C02F3F19F00196A11DB11DF1
:100290003FBFBA2FA92F982F8827BC01CD01620F2D
:1002A000711D811D911D42E0660F771F881F991FE8
:1002B0004A95D1F708958F929F92AF92BF92CF92B5
:1002C000DF92EF92FF924B015C010E9436016B01BD
:1002D0007C010E9436016C197D098E099F09683ED8
:1002E000734081059105A8F321E0821A9108A108C5
:1002F000B10888EEC80E83E0D81EE11CF11C811401
:100300009104A104B10429F7FF90EF90DF90CF9002
:10031000BF90AF909F908F900895089590E080E0F7
:100320000895FC0101900020E9F73197AF01481BC7
:10033000590BBC018BE991E00C948C008F929F9239
:10034000AF92BF920F931F93CF93DF93CDB7DEB7DA
:10035000A1970FB6F894DEBF0FBECDBF19A24230F1
:1003600008F44AE08E010F5D1F4F842E912CB12CB2
:10037000A12CA50194010E944A08E62FB901CA01E7
:10038000EA30F4F4E05DD801EE938D01232B242BA9
:10039000252B79F790E080E0109719F0CD010E94AD
:1003A0009101A1960FB6F894DEBF0FBECDBFDF91CD
:1003B000CF911F910F91BF90AF909F908F90089514
:1003C000E95CE1CF0C949101CF93DF93EC0160E005
:1003D0008E810E94B90061E08E810E94B90060E0C8
:1003E0008E810E94B9008BE891E00197F1F7DF91CF
:1003F000CF910895CF92DF92EF92FF920F931F93C8
:10040000CF93DF936C017C0187E0E80EF11CD0E014
:10041000C0E0062F10E0B8010C2E02C0759567955C
:100420000A94E2F76170F70181917F010E94B9009F
:100430002196C430D10579F7C601DF91CF911F9184
:100440000F91FF90EF90DF90CF900C94E401CF924A
:10045000DF92EF92FF920F931F93CF93DF93EC0104
:10046000F62E642F8C810E94B9008D818F3F19F088
:1004700060E00E94B9000F2D10E08F8584FF25C039
:100480006E0187E0C80ED11CF12CE12CB8010E2CB6
:1004900002C0759567950A94E2F76170F601819143
:1004A0006F010E94B900FFEFEF1AFF0A88E0E8161B
:1004B000F10461F7CE01DF91CF911F910F91FF9071
:1004C000EF90DF90CF900C94E401B80184E0759533
:1004D00067958A95E1F7CE010E94FA016F2DCE0152
:1004E000DF91CF911F910F91FF90EF90DF90CF9010
:1004F0000C94FA0140E0682F8BE991E00C942702FC
:1005000081E00E947A028BE39FE10197F1F7089561
:10051000CF93DF93823029F49091AA019860909351
:10052000AA018093AE011092AF0180E48093B001E4
:1005300080E18093B10180E58093B20161E0809118
:100540009F010E9405018091A0018F3F19F061E099
:100550000E94050161E08091A1010E940501CBE9A3
:10056000D1E09E012B5931408091AA0184FD0BC03E
:1005700084E090E021962817390744F461E08E81E9
:100580000E940501EECF88E090E0F4CF8BE39DE080
:100590000197F1F760E080919F010E94B90060E04F
:1005A0008091A1010E94B9008091A0018F3F19F0B4
:1005B00060E00E94B9008091AA0184FD34C063E02C
:1005C0008BE991E00E94FA01CBE4D6E4CE010197D9
:1005D000F1F763E08BE991E00E94FA012197F1F7CE
:1005E00063E08BE991E00E94FA0183E592E00197D4
:1005F000F1F762E08BE991E00E94FA018091AA0193
:1006000080620E947A0284E08093AB018CE00E94B9
:100610007A020E94800282E08093AC0186E0DF9142
:10062000CF910C947A0280620E947A028BE496E465
:100630000197F1F78091AA0180620E947A0283E516
:1006400092E00197F1F78091AA0180620E947A02FC
:10065000D5CF9091AE01891710F08FEF890FE82F59
:10066000F0E0E556FE4F848980680C947A0241E000
:100670000E94270281E090E008951F920F920FB62A
:100680000F9211242F933F938F939F93AF93BF9318
:100690008091910190919201A0919301B091940168
:1006A00030918C0123E0230F2D3758F50196A11DC1
:1006B000B11D20938C018093910190939201A0939E
:1006C0009301B093940180918D0190918E01A0913E
:1006D0008F01B09190010196A11DB11D80938D01F4
:1006E00090938E01A0938F01B0939001BF91AF9131
:1006F0009F918F913F912F910F900FBE0F901F9060
:10070000189526E8230F0296A11DB11DD2CFCF92D6
:10071000DF92EF92FF920F931F93E82FF92F05C0FE
:10072000015011092109310961F190819623941733
:10073000B9F305C0015011092109310911F1908166
:1007400096239413F7CFC12CD12CE12CF12C0AC0A5
:100750008FEFC81AD80AE80AF80A0C151D052E05ED
:100760003F0579F080818623841791F36C2D7D2DD0
:100770008E2D9F2D1F910F91FF90EF90DF90CF90C6
:10078000089560E070E080E090E01F910F91FF908D
:10079000EF90DF90CF900895789484B5826084BD07
:1007A00084B5816084BD85B5826085BD85B5816075
:1007B00085BD80916E00816080936E0010928100F3
:1007C00080918100826080938100809181008160AE
:1007D000809381008091800081608093800080916F
:1007E000B10084608093B1008091B00081608093FB
:1007F000B00080917A00846080937A0080917A00C2
:10080000826080937A0080917A00816080937A0080
:1008100080917A00806880937A001092C10061E034
:100820008AE00E94050160E08BE00E94050161E022
:1008300088E00E94050161E08CE00E94050182E0F1
:100840000E94880280E00E9429038CE091E00E94CF
:10085000E20181E00E94290388E191E00E94E20127
:1008600060ED77E080E090E00E945B010E948002F2
:10087000C3E0D0E093E2292E312C20E0A22E20E02C
:10088000B22E88248394912C60E08AE00E94B90003
:10089000CE010197F1F761E08AE00E94B900C10141
:1008A0000197F1F760E08AE00E94B900CE0101975C
:1008B000F1F7E9EBF0E06491E5EAF0E08491E82FEC
:1008C000F0E0EE0FFF1FE057FF4F8591949100E499
:1008D00012E42FE030E0462F0E9487036115710576
:1008E0008105910529F06F5F7F4F8F4F9F4F9F705C
:1008F0000E94210720E030E04AEA53E40E94D80732
:1009000020E030E44CE956E40E94800660939701B1
:10091000709398018093990190939A0180E00E94CE
:10092000290382E291E00E94E20181E00E94290312
:1009300081E391E00E94E201C0909701D09098017C
:10094000E0909901F0909A01A7019601C701B601C4
:100950000E944508882309F46AC08CE391E00E9454
:10096000910188E491E00E94E20168EE73E080E08A
:1009700090E00E945B010E948002C0909701D0909D
:100980009801E0909901F0909A0120E030E040E277
:1009900052E4C701B6010E947B0687FFF9C080912F
:1009A000950190919601009709F0D5C060E088E02C
:1009B0000E94B90061E08CE00E94B90080E00E94D2
:1009C00029038BE491E00E94E20181E00E94290367
:1009D0008BE591E00E94E2012FB7F89460919101BC
:1009E0007091920180919301909194012FBF4AE000
:1009F0000E949E0168EB7BE080E090E00E945B013A
:100A000060E08CE00E94B90068EE73E080E090E066
:100A10000E945B010E948002909296018092950153
:100A2000A114B10409F430CF0E9400002DCF26019B
:100A30003701E89477F82FEF3FEF4FE75FE7C30107
:100A4000B2010E94450881110DC02FEF3FEF4FE723
:100A50005FE7C301B2010E947B0618161CF480E414
:100A600091E07DCF2FEF3FEF4FE75FE4C701B60185
:100A70000E94D30718161CF484E491E070CF2FEF86
:100A80003FEF4FE75FECC701B6010E947B0687FD91
:100A9000F3CF20E030E0A901C701B6010E947B0638
:100AA00087FF0AC041E06DE28BE991E00E942702D6
:100AB000F7FAF094F7F8F0942AE037ED43EA5BE3B5
:100AC000C701B6010E940F062B013C010E94F206ED
:100AD0006B017C010E9421079B01AC01C301B201A3
:100AE0000E940E062B013C014AE0C701B6010E949C
:100AF0009E0141E06EE28BE991E00E94270220E036
:100B000030E040E251E4C301B2010E94D8072B015A
:100B10003C010E94F2066B01F12CE12C4AE0C70176
:100B2000B6010E949E01C701B6010E9421079B01E8
:100B3000AC01C301B2010E940E0620E030E040E2A9
:100B400051E40E94D8070E94F20690E080E04AE05B
:100B50000E949E0106CF0197D9F460E088E00E94D0
:100B6000B90080E00E9429038BE491E00E94E20139
:100B700081E00E9429038BE591E00E94E20168EE8A
:100B800073E080E090E00E945B010E94800248CF09
:100B900020E030E048EC52E4C701B6010E94D307E0
:100BA00018160CF03DCF61E088E00E94B90080E0AB
:100BB0000E9429038CE691E00E94E20181E00E94FC
:100BC00029038CE791E00E94E20168EE73E080E087
:100BD00090E00E945B011092960110929501D5CF92
:100BE000EBE9F1E01382128284E091E0918380834B
:100BF0008EE084838FEF85838FE0868380E1878317
:100C000081E1808782E1818783E182871386148670
:100C100015861686178681E00C9488025058BB27EB
:100C2000AA270E9426060C9499070E948B0738F089
:100C30000E94920720F039F49F3F19F426F40C9497
:100C400088070EF4E095E7FB0C948207E92F0E94D9
:100C5000AA0758F3BA17620773078407950720F0AD
:100C600079F4A6F50C94CC070EF4E0950B2EBA2F70
:100C7000A02D0B01B90190010C01CA01A0011124A2
:100C8000FF27591B99F0593F50F4503E68F11A164E
:100C9000F040A22F232F342F4427585FF3CF4695DF
:100CA00037952795A795F0405395C9F77EF41F1601
:100CB000BA0B620B730B840BBAF09150A1F0FF0FCB
:100CC000BB1F661F771F881FC2F70EC0BA0F621FB7
:100CD000731F841F48F4879577956795B795F795A7
:100CE0009E3F08F0B0CF9395880F08F09927EE0F3C
:100CF0009795879508950E945E0708F481E008950E
:100D00000E9494060C9499070E94920758F00E9442
:100D10008B0740F029F45F3F29F00C9482075111B2
:100D20000C94CD070C9488070E94AA0768F39923B6
:100D3000B1F3552391F3951B550BBB27AA276217D7
:100D40007307840738F09F5F5F4F220F331F441FE4
:100D5000AA1FA9F335D00E2E3AF0E0E832D0915018
:100D60005040E695001CCAF72BD0FE2F29D0660F05
:100D7000771F881FBB1F261737074807AB07B0E848
:100D800009F0BB0B802DBF01FF2793585F4F3AF04E
:100D90009E3F510578F00C9482070C94CD075F3F7D
:100DA000E4F3983ED4F3869577956795B795F795D4
:100DB0009F5FC9F7880F911D9695879597F90895BC
:100DC000E1E0660F771F881FBB1F62177307840758
:100DD000BA0720F0621B730B840BBA0BEE1F88F767
:100DE000E09508950E94B20788F09F5798F0B92FB8
:100DF0009927B751B0F0E1F0660F771F881F991F50
:100E00001AF0BA95C9F714C0B13091F00E94CC071E
:100E1000B1E008950C94CC07672F782F8827B85F2E
:100E200039F0B93FCCF3869577956795B395D9F7A7
:100E30003EF490958095709561957F4F8F4F9F4FB1
:100E40000895E89409C097FB3EF4909580957095BD
:100E500061957F4F8F4F9F4F9923A9F0F92F96E906
:100E6000BB279395F695879577956795B795F1117B
:100E7000F8CFFAF4BB0F11F460FF1BC06F5F7F4F18
:100E80008F4F9F4F16C0882311F096E911C077232A
:100E900021F09EE8872F762F05C0662371F096E833
:100EA000862F70E060E02AF09A95660F771F881F02
:100EB000DAF7880F9695879597F90895990F0008A6
:100EC000550FAA0BE0E8FEEF16161706E807F9071C
:100ED000C0F012161306E407F50798F0621B730BB7
:100EE000840B950B39F40A2661F0232B242B252B38
:100EF00021F408950A2609F4A140A6958FEF811DDB
:100F0000811D089597F99F6780E870E060E008957B
:100F10009FEF80EC089500240A9416161706180611
:100F20000906089500240A941216130614060506ED
:100F30000895092E0394000C11F4882352F0BB0F7E
:100F400040F4BF2B11F460FF04C06F5F7F4F8F4FE1
:100F50009F4F089557FD9058440F551F59F05F3F1C
:100F600071F04795880F97FB991F61F09F3F79F0CB
:100F700087950895121613061406551FF2CF46954D
:100F8000F1DF08C0161617061806991FF1CF8695CF
:100F90007105610508940895E894BB2766277727B3
:100FA000CB0197F908950E945E0708F48FEF08952A
:100FB0000E94EB070C9499070E948B0738F00E945F
:100FC000920720F0952311F00C9482070C94880767
:100FD00011240C94CD070E94AA0770F3959FC1F3CA
:100FE000950F50E0551F629FF001729FBB27F00DD7
:100FF000B11D639FAA27F00DB11DAA1F649F66272C
:10100000B00DA11D661F829F2227B00DA11D621F7A
:10101000739FB00DA11D621F839FA00D611D221F34
:10102000749F3327A00D611D231F849F600D211D18
:10103000822F762F6A2F11249F5750409AF0F1F09B
:1010400088234AF0EE0FFF1FBB1F661F771F881F04
:1010500091505040A9F79E3F510580F00C948207B3
:101060000C94CD075F3FE4F3983ED4F386957795D3
:101070006795B795F795E7959F5FC1F7FE2B880FAA
:10108000911D9695879597F908950E945E07880BA4
:10109000990B0895A1E21A2EAA1BBB1BFD010DC0DE
:1010A000AA1FBB1FEE1FFF1FA217B307E407F50718
:1010B00020F0A21BB30BE40BF50B661F771F881FF4
:1010C000991F1A9469F760957095809590959B018A
:1010D000AC01BD01CF010895EE0FFF1F0590F49103
:1010E000E02D0994F894FFCF0000000037038C0036
:1010F0008E018D015761746572206C6576656C0098
:10110000496E64696361746F72005761746572201F
:10111000537061636520696E002054616E6B2069B5
:10112000733A20006E616E00696E66006F7666002D
:10113000436D0057617465722054616E6B20467573
:101140006C6C004D6F746F72205475726E65642004
:101150004F4646004C4F57205761746572204C65CE
:1011600076656C004D6F746F72205475726E656495
:04117000204F4E00BE
:107800000C94343C0C94513C0C94513C0C94513CE1
:107810000C94513C0C94513C0C94513C0C94513CB4
:107820000C94513C0C94513C0C94513C0C94513CA4
:107830000C94513C0C94513C0C94513C0C94513C94
:107840000C94513C0C94513C0C94513C0C94513C84
:107850000C94513C0C94513C0C94513C0C94513C74
:107860000C94513C0C94513C11241FBECFEFD8E036
:10787000DEBFCDBF11E0A0E0B1E0ECE9FFE702C060
:1078800005900D92A230B107D9F712E0A2E0B1E065
:1078900001C01D92AD30B107E1F70E942D3D0C945F
:1078A000CC3F0C94003C982F959595959595959582
:1078B000905D8F708A307CF0282F295A8091C0000B
:1078C00085FFFCCF9093C6008091C00085FFFCCF60
:1078D0002093C6000895282F205DF0CF982F809127
:1078E000C00085FFFCCF9093C6000895EF92FF92F1
:1078F0000F931F93EE24FF2487018091C00087FD22
:1079000017C00894E11CF11C011D111D81E4E8164B
:1079100082E4F8068FE0080780E0180770F3E09132
:107920000401F091050109958091C00087FFE9CF1E
:107930008091C6001F910F91FF90EF9008950E94D3
:10794000763C982F8091C00085FFFCCF9093C600B5
:1079500091362CF490330CF09053892F089597555D
:10796000892F08951F930E949F3C182F0E949F3CCF
:107970001295107F810F1F9108951F93182F882350
:1079800021F00E94763C1150E1F71F9108951F935A
:10799000182F0E94763C803249F0809103018F5F5E
:1079A000809303018530C1F01F9108958091C0003C
:1079B00085FFFCCF84E18093C6008091C00085FFE5
:1079C000FCCF1093C6008091C00085FFFCCF80E102
:1079D0008093C6001F910895E0910401F091050184
:1079E00009951F9108950E94763C803241F0809164
:1079F00003018F5F80930301853081F008958091AA
:107A0000C00085FFFCCF84E18093C6008091C00058
:107A100085FFFCCF80E18093C6000895E0910401CA
:107A2000F09105010995089540E951E08823A1F0FE
:107A30002D9A28EE33E0FA013197F1F721503040CA
:107A4000D1F72D9828EE33E0FA013197F1F7215064
:107A50003040D1F7815061F708953F924F925F9285
:107A60006F927F928F929F92AF92BF92CF92DF924E
:107A7000EF92FF920F931F93CF93DF93000080E16B
:107A80008093C4001092C50088E18093C10086E015
:107A90008093C2005098589A259A81E00E94143D24
:107AA00024E1F22E9EE1E92E85E9D82E0FE0C02ECA
:107AB00010E1B12EAA24A394B1E49B2EA6E58A2E50
:107AC000F2E57F2EE0E26E2E79E4572E63E5462E36
:107AD00050E5352E0E94763C8033B1F18133B9F107
:107AE000803409F46FC0813409F476C0823409F41B
:107AF00085C0853409F488C0803531F1823521F1A3
:107B0000813511F1853509F485C0863509F48DC0BC
:107B1000843609F496C0843709F403C1853709F423
:107B200072C1863709F466C0809103018F5F80932C
:107B30000301853079F6E0910401F0910501099582
:107B40000E94763C803351F60E94F33CC3CF0E94E2
:107B5000763C803249F78091C00085FFFCCFF092DF
:107B6000C6008091C00085FFFCCF9092C600809136
:107B7000C00085FFFCCF8092C6008091C00085FFC9
:107B8000FCCF7092C6008091C00085FFFCCF609250
:107B9000C6008091C00085FFFCCF5092C600809146
:107BA000C00085FFFCCF4092C6008091C00085FFD9
:107BB000FCCF3092C6008091C00085FFFCCFB09210
:107BC000C60088CF0E94763C863808F4BDCF0E945C
:107BD000763C0E94F33C7ECF0E94763C803809F4CC
:107BE0009CC0813809F40BC1823809F43CC1883942
:107BF00009F48FC080E00E94C73C6CCF84E10E94F2
:107C0000BD3C0E94F33C66CF85E00E94BD3C0E94D3
:107C1000F33C60CF0E94763C809306010E94763C44
:107C2000809307010E94F33C55CF0E94763C80333D
:107C300009F41DC183E00E94BD3C80E00E94C73C66
:107C400049CF0E94763C809309020E94763C809343
:107C5000080280910C028E7F80930C020E94763C79
:107C6000853409F415C18091080290910902892B8D
:107C700089F000E010E00E94763CF801E85FFE4FDA
:107C800080830F5F1F4F80910802909109020817AF
:107C9000190788F30E94763C803209F045CF809125
:107CA0000C0280FF01C16091060170910701660F0F
:107CB000771F7093070160930601A0910802B091AD
:107CC00009021097C9F0E8E0F1E09B01AD014E0F09
:107CD0005F1FF999FECF32BD21BD819180BDFA9A17
:107CE000F99A2F5F3F4FE417F50799F76A0F7B1F4B
:107CF00070930701609306018091C00085FFFCCF5F
:107D0000F092C6008091C00085FFFCCFB092C60003
:107D1000E1CE83E00E94C73CDDCE82E00E94C73CFA
:107D2000D9CE0E94763C809309020E94763C8093D3
:107D300008028091060190910701880F991F909386
:107D40000701809306010E94763C853409F4A6C0A1
:107D500080910C028E7F80930C020E94763C8032D0
:107D600009F0B8CE8091C00085FFFCCFF092C6002C
:107D7000609108027091090261157105B9F140E046
:107D800050E080910C02A82FA170B82FB27011C0E2
:107D9000BB2309F45CC0E0910601F0910701319624
:107DA000F0930701E09306014F5F5F4F46175707B7
:107DB000E8F4AA2369F3F999FECF209106013091E6
:107DC000070132BD21BDF89A90B58091C00085FFB2
:107DD000FCCF9093C6002F5F3F4F30930701209355
:107DE00006014F5F5F4F4617570718F38091C00099
:107DF00085FDE5CE8091C00085FFF8CFE0CE81E023
:107E00000E94C73C67CE0E94763C803209F08CCE3F
:107E10008091C00085FFFCCFF092C6008091C00029
:107E200085FFFCCFE092C6008091C00085FFFCCFAB
:107E3000D092C6008091C00085FFFCCFC092C600E2
:107E40008091C00085FFFCCFB092C60043CEE09188
:107E50000601F091070194918091C00085FFFCCF4D
:107E60009093C6009CCF80E10E94C73C33CE0E9415
:107E7000763C0E94763C182F0E94763C112309F430
:107E800083C0113009F484C08FE00E94C73C22CE29
:107E900080910C02816080930C02E5CE80910C02EF
:107EA000816080930C0259CF809107018823880F4D
:107EB000880B8A2180930B02809106019091070123
:107EC000880F991F90930701809306018091080203
:107ED00080FF09C080910802909109020196909359
:107EE000090280930802F894F999FECF1127E091D6
:107EF0000601F0910701C8E0D1E08091080290915D
:107F00000902103091F40091570001700130D9F34B
:107F100003E000935700E89500915700017001308D
:107F2000D9F301E100935700E89509901990009169
:107F3000570001700130D9F301E000935700E89534
:107F40001395103498F011270091570001700130FB
:107F5000D9F305E000935700E895009157000170B0
:107F60000130D9F301E100935700E895329602976A
:107F700009F0C7CF103011F00296E5CF112480919F
:107F8000C00085FFB9CEBCCE8EE10E94C73CA2CD19
:0E7F900085E90E94C73C9ECDF894FFCF80008B
:00000001FF
